{
  "contractName": "Todo",
  "abi": [
    {
      "anonymous": false,
      "inputs": [
        {
          "indexed": false,
          "internalType": "string",
          "name": "desc",
          "type": "string"
        }
      ],
      "name": "Foo",
      "type": "event"
    },
    {
      "inputs": [
        {
          "internalType": "uint256",
          "name": "i",
          "type": "uint256"
        }
      ],
      "name": "getTask",
      "outputs": [
        {
          "internalType": "string",
          "name": "",
          "type": "string"
        }
      ],
      "stateMutability": "view",
      "type": "function",
      "constant": true
    },
    {
      "inputs": [
        {
          "internalType": "string",
          "name": "s",
          "type": "string"
        }
      ],
      "name": "addTask",
      "outputs": [],
      "stateMutability": "nonpayable",
      "type": "function"
    },
    {
      "inputs": [
        {
          "internalType": "string",
          "name": "desc",
          "type": "string"
        }
      ],
      "name": "triggerEvent",
      "outputs": [],
      "stateMutability": "nonpayable",
      "type": "function"
    }
  ],
  "bytecode": "0x608060405234801561001057600080fd5b50610546806100206000396000f3fe608060405234801561001057600080fd5b50600436106100415760003560e01c80631d65e77e146100465780636723856214610076578063e6c75c6b14610092575b600080fd5b610060600480360381019061005b919061034a565b6100ae565b60405161006d91906103fd565b60405180910390f35b610090600480360381019061008b9190610305565b610184565b005b6100ac60048036038101906100a79190610305565b6101c6565b005b6060600082815481106100ea577f4e487b7100000000000000000000000000000000000000000000000000000000600052603260045260246000fd5b9060005260206000200180546100ff90610487565b80601f016020809104026020016040519081016040528092919081815260200182805461012b90610487565b80156101785780601f1061014d57610100808354040283529160200191610178565b820191906000526020600020905b81548152906001019060200180831161015b57829003601f168201915b50505050509050919050565b60008282909180600181540180825580915050600190039060005260206000200160009091929091929091929091925091906101c1929190610203565b505050565b7f9f0b7f1630bdb7d474466e2dfef0fb9dff65f7a50eec83935b68f77d0808f08a82826040516101f79291906103d9565b60405180910390a15050565b82805461020f90610487565b90600052602060002090601f0160209004810192826102315760008555610278565b82601f1061024a57803560ff1916838001178555610278565b82800160010185558215610278579182015b8281111561027757823582559160200191906001019061025c565b5b5090506102859190610289565b5090565b5b808211156102a257600081600090555060010161028a565b5090565b60008083601f8401126102b857600080fd5b8235905067ffffffffffffffff8111156102d157600080fd5b6020830191508360018202830111156102e957600080fd5b9250929050565b6000813590506102ff816104f9565b92915050565b6000806020838503121561031857600080fd5b600083013567ffffffffffffffff81111561033257600080fd5b61033e858286016102a6565b92509250509250929050565b60006020828403121561035c57600080fd5b600061036a848285016102f0565b91505092915050565b600061037f838561042a565b935061038c838584610445565b610395836104e8565b840190509392505050565b60006103ab8261041f565b6103b5818561042a565b93506103c5818560208601610454565b6103ce816104e8565b840191505092915050565b600060208201905081810360008301526103f4818486610373565b90509392505050565b6000602082019050818103600083015261041781846103a0565b905092915050565b600081519050919050565b600082825260208201905092915050565b6000819050919050565b82818337600083830152505050565b60005b83811015610472578082015181840152602081019050610457565b83811115610481576000848401525b50505050565b6000600282049050600182168061049f57607f821691505b602082108114156104b3576104b26104b9565b5b50919050565b7f4e487b7100000000000000000000000000000000000000000000000000000000600052602260045260246000fd5b6000601f19601f8301169050919050565b6105028161043b565b811461050d57600080fd5b5056fea26469706673582212207709b88cc0162eaabf649443cb9b4ff53a2ac038aef4b41c05de975aa270de6364736f6c63430008010033",
  "immutableReferences": {},
  "source": "pragma solidity >=0.4.22 <0.9.0;\r\ncontract Todo {\r\n    string[] tasks;\r\n    event Foo(string desc);\r\n\r\n    function getTask(uint i) public view returns(string memory)\r\n    {\r\n        return tasks[i];\r\n    }\r\n    \r\n    function addTask(string calldata s) public{\r\n        tasks.push(s);\r\n    }\r\n\r\n    function triggerEvent(string calldata desc) public {\r\n        emit Foo(desc);\r\n    }\r\n}",
  "sourcePath": "C:\\Users\\This PC\\Desktop\\BlockChain\\Truffle2\\contracts\\Todo.sol",
  "compiler": {
    "name": "solc",
    "version": "0.8.1+commit.df193b15.Emscripten.clang"
  },
  "schemaVersion": "3.4.3",
  "updatedAt": "2021-09-03T17:59:32.277Z",
  "networkType": "ethereum",
  "devdoc": {
    "kind": "dev",
    "methods": {},
    "version": 1
  },
  "userdoc": {
    "kind": "user",
    "methods": {},
    "version": 1
  }
}